S013000044726F73745F76312E30302E7372656371
S31508000000A00400209D1E0008130E00087B0E0008A1
S3150800001000000000000000000000000000000000D2
S31508000020000000000000000000000000BF1A0008E1
S3150800003000000000000000007B1E0008D51D000817
S31508000040871E000800000000B91E0008BB1E000835
S31508000050BD1E0008BF1E0008FF1D0008ED1D000894
S3150800006000000000C11E0008C31E0008C51E0008C7
S31508000070C71E0008C91E0008CB1E000800000000A5
S31508000080CD1E00080000000000000000CF1E00087A
S3150800009000000000D11E0008D31E0008D51E000867
S315080000A000000000D71E000800000000D91E000846
S315080000B0F8B5040004D184214900A54800F0A8FE3B
S315080000C02068002806D0C00604D1FF210A31A048BE
S315080000D000F09EFE9F4D2078C0076ED56068002808
S315080000E008D0012806D0052804D0FF2110319848E9
S315080000F000F08EFE68680C210140042907D0686864
S315080001000C21014008290AD16868C00307D5286868
S31508000110800352D5606800284FD10120F2BD2868B7
S315080001208D49014029608D4F28683840286000F0C5
S3150800013071FE06002868800307D500F06BFE801B59
S3150800014087498842F6D30320F2BD6068012809D0A2
S31508000150002801D128680BE00528286808D1F9434A
S31508000160014329602868802149020143296005E086
S31508000170794901402960286807402F608027BF0217
S31508000180606800280CD000F045FE06002868384054
S3150800019013D100F03FFE801B71498842F6D3D2E79F
S315080001A000F038FE06002868384006D000F032FE17
S315080001B0801B6B498842F6D3C5E702200090206869
S315080001C0022101402CD0E068002806D0012804D07E
S315080001D0FF2152315E4800F01BFE2069202804D317
S315080001E0A92149005A4800F013FEF827FF4368681A
S315080001F00C21014007D068680C210140082930D13C
S315080002006868C0032DD428680099014002D0E068C8
S31508000210012882D1286807402069C0003843286031
S315080002202078000752D5206A00283ED0012807D03A
S31508000230C9214900464800F0EBFD206A002834D061
S31508000240686A01210143696200F0E4FD0600686AF4
S31508000250009901403AD100F0DDFD801B6528F6D3F0
S3150800026071E7E068002828680FD00121014329605A
S3150800027000F0D0FD0600286800990140CAD100F0B8
S31508000280C9FD801B6528F6D35DE7012188432860F0
S3150800029000F0C0FD0600286800990140C0D000F0B3
S315080002A0B9FD801B6528F6D34DE7686A01218843A6
S315080002B0686200F0AFFD0600686A0099014005D043
S315080002C000F0A8FD801B6528F6D33CE72078400798
S315080002D000D47EE0A068002808D0012806D00528AA
S315080002E004D0DE2149001A4800F092FD802040051E
S315080002F0E9690143E961E9690840009000989C4F63
S315080003003868A90D0143396000F084FD0600386895
S31508000310C00505D400F07EFD801B6528F7D312E7DB
S31508000320286A012188432862286A042188432862AA
S3150800033000F070FD0A4E070002200090286A02218C
S3150800034001400FD000F066FDC01BB042F4D3FAE6B8
S31508000350B41C000800100240FFFFFEFFFFFFFBFF72
S3150800036089130000A068012809D0002801D1286A4D
S315080003700AE00528286A07D1042101432962286A68
S3150800038001210143296206E0012188432862286A7F
S315080003900421884328623746A06800280CD000F05C
S315080003A039FD0600286A0099014012D100F032FD95
S315080003B0801BB842F6D3C6E600F02CFD0600286A74
S315080003C00099014005D000F025FD801BB842F6D300
S315080003D0B9E62078C00635D56069002809D0012815
S315080003E007D00421C943884203D08849884800F0C9
S315080003F00FFDA069202804D381218900844800F0D4
S3150800040007FD6069F827FF43012800D0B2E0686B52
S31508000410042101436963686B01210143696300F0A4
S31508000420F9FC0600686B0099014005D100F0F2FC62
S31508000430801B6528F6D386E6686B0740A069C0006E
S3150800044038436863606A002809D0012809D0022861
S3150800045007D070496E4800F0DBFC606A002800D1BE
S31508000460D2E068680C210140082900D155E68027AA
S31508000470BF04694E606A022800D0B6E0A06A002868
S3150800048007D0790A884204D0A0218900604800F084
S31508000490BFFCE06A002837D0F909884234D0490001
S315080004A0884231D0C021090388422DD07909884273
S315080004B02AD0A0214903884226D0C0214903884270
S315080004C022D0E021490388421ED0390988421BD030
S315080004D090218903884217D0A0218903884213D026
S315080004E0B021890388420FD0C021890388420BD0E6
S315080004F0D0218903884207D0E0218903884203D0A6
S315080005004649434800F084FC206B002821D0012886
S315080005101FD002281DD003281BD0042819D005286F
S3150800052017D0062815D0072813D0082811D009286F
S315080005300FD00A280DD00B280BD00C2809D00D286F
S3150800054007D00E2805D00F2803D03549304800F0CB
S315080005505FFC286806402E6000F05CFC06002868F0
S31508000560384024D000F056FC801B6528F7D3EAE50E
S31508000570007000400421C9438842686B02D10140DB
S31508000580696359E7042101436963686B012188435C
S31508000590686300F03FFC0600686B0099014000D1D3
S315080005A050E700F037FC801B6528F5D3CBE5E86AF1
S315080005B00F218843216B0143E962686819490140A4
S315080005C0E06A0843A16A014369602868790801431B
S315080005D0296000F01FFC04002868384014D100F098
S315080005E019FC001B6528F7D3ADE5286806402E6080
S315080005F000F010FC04002868384005D000F00AFC1A
S31508000600001B6528F7D39EE50020F2BD0302000013
S31508000610B41C000877020000FFFFFFFE81020000FD
S3150800062082020000FFFFC2FFFEB504000D00002C89
S3150800063003D1A149A14800F0EBFB2078400704D17B
S31508000640B82189009D4800F0E3FB0095002D05D0F0
S31508000650012D03D09A49994800F0DAFB9948019090
S315080006608027BF04984D022698480068C107C90F1D
S315080006700098814200D37CE09448016801229143A6
S31508000680009A0A4302600068C107C90F00988142B0
S3150800069034D1206830401CD0A068002813D08028A8
S315080006A011D090280FD0A0280DD0B0280BD0C02884
S315080006B009D0D02807D0E02805D0F02803D08449EF
S315080006C07E4800F0A5FB6868F0218843A1680143CD
S315080006D069602078C00700D4C9E06068002814D093
S315080006E0012808D002280CD07A49744800F090FBFB
S315080006F06068012803D12868800309D4B5E0022878
S3150800070003D12868074003D1AFE028680640FBD02C
S3150800071068680321884361680143696000F07AFBD1
S3150800072006006068674F01280BD168680C210140F4
S31508000730042916D000F06EFB801BB842F5D30320BF
S31508000740FEBD02280AD168680C210140082908D094
S3150800075000F060FB801BB842F5D3F0E768680C210F
S31508000760014000D183E000F055FB801BB842F5D369
S31508000770E5E7206830401CD0A068002813D0802800
S3150800078011D090280FD0A0280DD0B0280BD0C028A3
S3150800079009D0D02807D0E02805D0F02803D05D4935
S315080007A0464800F035FB6868F0218843A168014394
S315080007B069602078C0074BD56068002815D00128E5
S315080007C009D002280DD0D92189003C4800F020FB29
S315080007D06068012803D12868800309D445E0022807
S315080007E003D12868074003D13FE0286806403CD07B
S315080007F068680321884361680143696000F00AFB61
S315080008000600606801280BD168680C21014004299C
S315080008101ED000F0FFFA801B01998842F4D38EE7B8
S31508000820284F02280AD168680C21014008290FD0F0
S3150800083000F0F0FA801BB842F5D380E768680C210F
S31508000840014005D000F0E6FA801BB842F6D376E7F9
S315080008501E48016801229143009A0A430260006813
S31508000860C107C90F0098814201D00120FEBD20783A
S3150800087040071BD5E068002812D0290D88420FD002
S31508000880A021C90088420BD0C021C900884207D0E0
S31508000890E021C900884203D02649084800F0B8FA82
S315080008A0686825490140E06808436860002000F050
S315080008B0B7FA0020FEBD0000DF020000B41C0008E5
S315080008C0E1020000891300000010024000200240E7
S315080008D0F7020000FE020000184B196818480C229F
S315080008E00A40082A00D0704730B50F221BA48D0C89
S315080008F01540645D9B6AC90307D500BF1BA11A4052
S31508000900895C00F09FFA604330BD20000D494843DA
S3150800091030BD00005D03000080B5FFF7DDFF00BFB6
S315080009200AA1064A12681206120F895CC8400649CF
S31508000930086002BDCB030000FFF8FFFF0410024069
S3150800094000127A0000093D0098000020000000000F
S315080009500102030401020304060708090203040549
S31508000960060708090A0B0C0D0E0F101001020304E6
S3150800097005060708090A0B0C0D0E0F10F0B5AB4853
S315080009800121016108220260042303600224046134
S31508000990BF4D00262E70EE88F70701D5036000E0EC
S315080009A00361046004612F780F2F01D10160016192
S315080009B076087F1C2F70FFB2102FEDDBEE800261E8
S315080009C0F0BDFEB500F05AFA00F0CCF900F066FA70
S315080009D0AF4CB048E060002020616061A061012052
S315080009E0E0610420206200206062A0620120E062CB
S315080009F000202063A063E0630120206420000C30FF
S31508000A0000F09CFA06200090802040010190000426
S31508000A100290694620000C3000F0D8FC0122012122
S31508000A20072000F098FE072000F0A3FE022201210D
S31508000A30062000F090FE062000F09BFE0020E080D5
S31508000A40FFF79CFFFA20C0000090009880216050B4
S31508000A5060580028FCD108019021C90588628020C9
S31508000A60886201209F49886200206066E070022043
S31508000A7020810020607020000C3000F0B5FB642156
S31508000A8020000C3000F012FC002808D120000C30A1
S31508000A9000F086FC608120000C3000F0DCFB6089E9
S31508000AA0AF49884201DB01212181C821C90088425A
S31508000AB011DA002020810EE000202071E080FFF787
S31508000AC05DFF0020E065A0656070A0703801A8622F
S31508000AD0AF620120B06220799025ED05814E80270E
S31508000AE0A16D002901D10128E6D0E16D002904D1C4
S31508000AF0002802D101206070EDE70128EBD1102112
S31508000B00300000F0B9FF002821D10821300000F09C
S31508000B10B3FF00281BD1E06E616F4018A16F401823
S31508000B20216E4018A16E4018E080FFF727FF0120CC
S31508000B30009021008031009A0A600A68002AFCD1D8
S31508000B40A070A949A165C102A962AF62C2E779018D
S31508000B50280000F091FF002805D10821300000F098
S31508000B608BFF0028D7D07901280000F085FF0028E0
S31508000B7005D11021300000F07FFF0028CBD00821D6
S31508000B80300000F079FF00281BD1206F616F4018F4
S31508000B90A16F4018216E4018A16E4018E080FFF73B
S31508000BA0EDFE0120009021008031009A0A600A6853
S31508000BB0002AFCD1A0708C49A165C102A961B06167
S31508000BC089E77901280000F057FF002819D1E06E5F
S31508000BD0616F4018E16F4018216E4018A16E4018E9
S31508000BE0E080FFF7CBFE0120009021008031009ABB
S31508000BF00A600A68002AFCD1A0707B49A165AF612A
S31508000C00DDE7A0780128DBD1E06E616F4018A16F9F
S31508000C104018216E4018A16E4018E080FFF7AEFE1E
S31508000C200020A0707048A06550E700001800004832
S31508000C3038B517490A89012A02D16C4A6C4B02E079
S31508000C406C4AA023DB00CC6E4D6F64198D6F641956
S31508000C508D6E824204D20A6E402A0AD040200EE0E7
S31508000C60904206D2834204D2086E50280ED05020F5
S31508000C7005E098420AD2086E102807D010200866A8
S31508000C80086E20184019C880FFF778FE31BD0000AD
S31508000C90000000200024014038B5574C2068401E4B
S31508000CA020601DD1554D2879012816D128000C3011
S31508000CB000F09AFA642128000C3000F0F7FA0028B0
S31508000CC004D128000C3000F06BFB688128000C303A
S31508000CD000F0C1FA6889FFF7ABFFFA20C000206070
S31508000CE031BD000000040048F8B53F4C434D1028BC
S31508000CF02DD16878002826D00026012728790028D3
S31508000D0012D16889FFF794FFE86E696F4018A96FDA
S31508000D104018296E4018A96E4018E880FFF72EFE85
S31508000D20AC65EE652F71F1BDEE80FFF727FEEE6527
S31508000D30AE65AE703248F902016080210160314823
S31508000D4007602E71F1BDAC652F48E865F1BD08282E
S31508000D5003D080214901884200D1AC65F1BD00006D
S31508000D600907000030B591B00220049001240794C9
S31508000D701020089000250D9504A8FFF799F900940E
S31508000D8001950295039500216846FFF74DFCFFF78C
S31508000D90C3FDFA21890000F055F800F0F8FC04209C
S31508000DA000F009FD002200210020C04300F0D3FC1A
S31508000DB011B030BD15480168002902D00168491EE6
S31508000DC0016070470D48816D002902D0816D491E6A
S31508000DD0816570470948C16D002902D0C16D491E59
S31508000DE0C16570470000000060EA0000750B00004E
S31508000DF0830A000046050000840000200000002049
S31508000E002800004828040048B80B0000800000208D
S31508000E107047FEE701480068704700BF9C00002045
S31508000E2010B50400FFF778FDFA21890000F00AF8EA
S31508000E3000F0ADFC002221000020C04300F08BFC2E
S31508000E40002010BD094214D088420FD30122030C9A
S31508000E5001D100041204002300185B418B4200D321
S31508000E605B1A5241F8D319001000704701000020A0
S31508000E70704708B500F022FE08BDFEE780B50648B3
S31508000E80016810220A4302600020FFF7C9FF00F03C
S31508000E9017FE002002BD000000200240F8B586B00B
S31508000EA08021C903214802680A430260026811408A
S31508000EB0059105998021890202680A430260026841
S31508000EC01140059105998021C90202680A4302600A
S31508000ED0006801400591059815480090012501957F
S31508000EE00024029403949027FF056946380000F011
S31508000EF087FC212000900195029403940D4E6946C3
S31508000F00300000F07DFC280300900B4D01950294FB
S31508000F106946380000F074FC1A2000900195029486
S31508000F206946300000F06CFC07B0F0BD14100240B2
S31508000F30BF0800000004004800002110F8B50400AE
S31508000F400026002C01D10120F2BDA54D2068A54937
S31508000F50884204D0FF2176312800FFF759FF6068E0
S31508000F6000280CD08021C905884208D080210906AE
S31508000F70884204D0BB2149002800FFF749FFA06832
S31508000F8000280AD0082808D0102806D0182804D027
S31508000F90FF2178312800FFF73BFFE068002806D0DC
S31508000FA0202804D0BC2149002800FFF731FF20691A
S31508000FB0012806D0022804D0FF217A312800FFF73D
S31508000FC027FF206A002806D0012804D0BD21490041
S31508000FD02800FFF71DFF606A002806D0012804D004
S31508000FE0FF217C312800FFF713FFE06A00280FD0A5
S31508000FF08021C90088420BD04900884208D0C02108
S315080010000901884204D0BE2149002800FFF700FFE5
S31508001010A06A00280BD0402809D0C02807D0FF2195
S31508001020C231884203D044392800FFF7F1FE206B0D
S31508001030002806D0012804D0BF2149002800FFF760
S31508001040E7FE6069042808D0082806D00C2804D0D2
S31508001050FF2180312800FFF7DBFE606B012806D0F0
S31508001060002804D0C02149002800FFF7D1FEA06956
S31508001070002806D0012804D0FF2182312800FFF776
S31508001080C7FEE069002806D0012804D0C12149001E
S315080010902800FFF7BDFE250040356868002804D102
S315080010A0A8602870200000F01CFD10216868084020
S315080010B003D1226804209368034000D08AE06F6851
S315080010C0784B3B4002271F436F6093689B079B0F33
S315080010D0012B05D11368DB070FD4D3681B040CD486
S315080010E0D3681827BB43A7681F43D76022681369CC
S315080010F09B009B0867681F4317612268D3686A4F7D
S315080011001F40D760626B012A01D0830200E00023EA
S315080011102269022A01D1009000E00096226AA0699D
S315080011208003E769FF030743500338430343E06836
S315080011301843009B0343206B40001843636A012B46
S3150800114004D1002A02D1020008031043A26AFF2331
S31508001150C2339A4203D00300E06A10431843226858
S31508001160D3680343D360A26B0B069A420DD0012ABB
S315080011700BD0022A09D0032A07D0042A05D0052A4B
S3150800118003D0062A01D0072A0CD1226853690727FB
S31508001190BB435361226853693827E75D7F077F0F92
S315080011A01F4357610222D2432368DB68744C1C40F4
S315080011B0844206D1AE606868024001201043686028
S315080011C00CE068680240114369600126A86830434C
S315080011D0A86003E068680143696001263000F2BD33
S315080011E0AC1B000800240140F8B5040000270025C0
S315080011F020686449884203D064496348FFF708FEBB
S31508001200042620688068304022D14020205C0128CE
S3150800121001D10220F2BD012040216054E069012875
S3150800122004D0200000F0CEF9050012D1200040308D
S315080012304168584A0A40B101114341608760077006
S315080012401C2021680860206881680E43866000E0DB
S3150800125002252800F2BD70B5040020684949884275
S3150800126003D04B494848FFF7D3FD4020205C0128AE
S3150800127001D1022070BD2500403501262E702000C0
S3150800128000F00FFA010009D1200000F0D9F9010099
S3150800129004D16968034A0A4016436E600021297022
S315080012A070BD0000FFFEFFFF1902FEFFF3B583B015
S315080012B000683449884203D037493348FFF7A8FD08
S315080012C0039C4034202700250126039840690828F6
S315080012D00BD003980068C068304005D060680743A3
S315080012E067602570012049E00C200090FFF792FD09
S315080012F00190039801680868009A024014D104987E
S315080013000021C9438842F4D0002806D0FFF782FDA1
S315080013100199401A04998142EBD26068042101437D
S3150800132061602570032029E00398626873021343FD
S315080013306360CA68C0231B01134018D1026A002AD9
S3150800134015D10A68120712D58A68520709D44A685D
S315080013500C239A434A606168104A0A40164366603D
S3150800136005E061680F436760A1680E43A66081695E
S31508001370002902D10C2100680160002005B0F0BDEB
S31508001380E7FF3F8300240140AC1B0008E902000088
S315080013902A030000FEF1FFFF61030000FFFEFFFFC6
S315080013A010B5040020680649884203D00649054856
S315080013B0FFF72EFD206808210160006C10BD0000B3
S315080013C000240140AC1B000849050000FEB50400D6
S315080013D00D0000260027009620687049884203D031
S315080013E06F497048FFF714FD00952868002825D036
S315080013F0012823D0022821D003281FD004281DD075
S3150800140005281BD0062819D0072817D0082815D074
S31508001410092813D00A2811D00B280FD00C280DD074
S315080014200D280BD00E2809D00F2807D0102805D074
S31508001430112803D05C495B48FFF7EAFC009840682E
S3150800144080214901884206D0491C884203D0574961
S315080014505448FFF7DDFCA06B80256D05A84223D014
S31508001460012821D002281FD003281DD004281BD00C
S31508001470052819D0062817D0072815D0009880689F
S31508001480A84211D001280FD002280DD003280BD06E
S31508001490042809D0052807D0062805D0072803D030
S315080014A043494048FFF7B4FC4020205C012801D19D
S315080014B00220FEBD01204022A05421688A685207F6
S315080014C05ED4009A1268904001903A48009A526891
S315080014D0394B9A428A6A019B42D013438B62A16BAD
S315080014E0A9421FD001291DD002291BD0032919D0D2
S315080014F0042917D0052915D0062913D0072911D094
S3150800150022680721009B9B6855690D40AB4209D0AC
S3150800151053698B43536122685369009DAD6829401E
S315080015201943516100990968102916D0112930D13B
S3150800153002681143016000980068102829D11F48E5
S3150800154000681F49FFF77EFC0A214843009000986F
S3150800155000281ED00098401EF8E780210904E7E716
S315080015609A438A6200990968102907D0112910D16F
S315080015701121C9430268114001600AE02F49F9E7C1
S3150800158021004031496820220A43210040314A603F
S315080015900127402026543800FEBD000000240140E3
S315080015A02C060000AC1B00082D0600002E060000C5
S315080015B032060000082701400110000098000020AC
S315080015C040420F00F8B50500002000902868012465
S315080015D081688907890F012905D1016821402AD127
S315080015E0C168090427D410278168464A0A401AD1D7
S315080015F0816821438160444800684449FFF722FC1A
S3150800160001E00098401E009000980028F9D1FFF7E5
S3150800161001FC06002868006820400CD1FFF7FAFB99
S31508001620801B0328F6D3686C07436F64A86C0443D1
S31508001630AC640120F2BD0020F2BD0000FFFF7FFF71
S31508001640F8B506003068032182680A40012A26D1C7
S3150800165001240268224002D1C26812041FD510254F
S31508001660826805231340012B11D182680223134394
S31508001670836030680160FFF7CDFB0700306880683B
S3150800168020400CD0FFF7C6FBC01B0328F6D3706CAE
S3150800169005437564B06C0443B4640120F2BD0020B0
S315080016A0F2BDF8B5040020681949884203D01949E3
S315080016B01948FFF7ADFB20680427816839401ED01A
S315080016C010258168394005D08168890702D4816868
S315080016D029438160FFF79EFB060020688068384032
S315080016E00DD0FFF797FB801B0228F6D9606C0543DF
S315080016F06564A06C01210143A1640120F2BD0020AC
S31508001700F2BD0000170000809800002040420F003C
S3150800171000240140CB070000AC1B000810B5C2002E
S3150800172018231340FF249C40E2438907090E994079
S31508001730030007D52B4B0007000F083880088000E8
S31508001740181803E028489B089B00C01803681A402D
S315080017501143016010BD38B504000D00042D03D3F4
S315080017609D212248FFF754FB29002000FFF7D6FFEA
S3150800177031BD10B5040003D5AD211C48FFF748FB61
S315080017800120E106C90E88401949086010BD10B548
S31508001790401E80214904884201D3012010BD154C02
S315080017A0606003210020C043FFF7B8FF0020A06057
S315080017B00721216010BD10B50E4C04280BD0002857
S315080017C004D0FF2138310948FFF722FB206804219D
S315080017D08843206010BD206804210143216010BDA4
S315080017E0000000001CED00E000E400E0241B0008F7
S315080017F000E100E010E000E080B5FFF74DFA01BD1A
S31508001800FEB507000C009020C00587420FD08E4811
S3150800181087420CD08D48874209D08D48874206D02A
S315080018208C48874203D0C3218B48FFF7F1FA20681A
S31508001830000403D1C4218848FFF7EAFA6068002843
S315080018401FD001281DD011281BD0022819D0122814
S3150800185017D08249884214D08149884211D08149DB
S3150800186088420ED0804988420BD08049884208D0E9
S315080018707F49884205D0032803D0C5217648FFF75B
S31508001880C7FAA068002807D0012805D0022803D087
S31508001890C6217148FFF7BCFA2600002430E005256A
S315080018A003E06B4B9F42FAD103258D401543056033
S315080018B070480268019BD9430A407368DB0302D566
S315080018C01300019A1A43026042680A4073689B0330
S315080018D002D51300019A1A43426082680A40736867
S315080018E0DB0202D51300019A1A438260C2681140CE
S315080018F07268920202D50A0001991143C160641CFC
S3150800190030680100E14000D19DE001250121A14098
S315080019100140019101980028F1D0A000694648705D
S315080019207068022801D0122823D19020C00587426A
S3150800193006D04548874203D0D5214748FFF768FABD
S315080019403069072803D3D6214348FFF761FAE00830
S3150800195080003918086A6A4653781C221A400F23F1
S315080019609340984333699C46130062469A40024363
S315080019700A62386861006A4611700321127891403C
S31508001980CA4302921146014030798007800F6A46A1
S3150800199012789040084338607068012805D00228FC
S315080019A003D0112801D012281DD1F068002807D0CD
S315080019B0012805D0032803D0EA212748FFF728FA8B
S315080019C0B96802980840F1686A461278914001435E
S315080019D0B96078680121A1408843716809092940DE
S315080019E0A14001437960F96802980840B1686A46DF
S315080019F0127891400143F9607068C00000D47EE710
S31508001A002A48016829430160006828400290029824
S31508001A102748A10889004018026869464B780C21B6
S31508001A2019400F238B409A439023DB059F4201D12F
S31508001A3000253AE7044B9F42FBD0044B9F4200D057
S31508001A402FE7022531E7F7BD0004004800080048E3
S31508001A50000C004800140048301C00080000111053
S31508001A6000002110000031100000121000002210A2
S31508001A70000032100004014038B504000D0004D1FE
S31508001A80FF2190310B48FFF7C3F92069284000D0A1
S31508001A900120C0B232BD084A1368034000D170471E
S31508001AA080B51060FFF720F901BD0000181002404C
S31508001AB008000140301C0008140401407047FEE786
S31508001AC080B5012015490A6802430A60096808407A
S31508001AD000900098002200210020C043FFF73BFE3B
S31508001AE001BD00680E49884200D0704780B586B0AF
S31508001AF0480D0A490A6802430A60096808400090C6
S31508001B00009840200190032002900020039001A92C
S31508001B109020C005FFF774FE07B000BD18100240FC
S31508001B2000240140433A5C55736572735C6D6973B2
S31508001B3074795C4F6E6544726976655C4465736B4F
S31508001B40746F705C50726F6A656374735C4172631C
S31508001B50686976655C53544152545F484552455C02
S31508001B6050584C332D474C494445524954455F56C5
S31508001B70345C447269766572735C53544D333246ED
S31508001B803078785F48414C5F4472697665725C5379
S31508001B9072635C73746D3332663078785F68616C33
S31508001BA05F636F727465782E63000000433A5C5574
S31508001BB0736572735C6D697374795C4F6E65447294
S31508001BC06976655C4465736B746F705C50726F6A96
S31508001BD0656374735C417263686976655C535441E6
S31508001BE052545F484552455C50584C332D474C4932
S31508001BF04445524954455F56345C44726976657269
S31508001C00735C53544D3332463078785F48414C5FA5
S31508001C104472697665725C5372635C73746D3332B1
S31508001C20663078785F68616C5F6164632E63000074
S31508001C30433A5C55736572735C6D697374795C4F6E
S31508001C406E6544726976655C4465736B746F705C27
S31508001C5050726F6A656374735C417263686976650E
S31508001C605C53544152545F484552455C50584C3376
S31508001C702D474C494445524954455F56345C447295
S31508001C8069766572735C53544D3332463078785FA3
S31508001C9048414C5F4472697665725C5372635C7343
S31508001CA0746D3332663078785F68616C5F67706927
S31508001CB06F2E6300433A5C55736572735C6D697386
S31508001CC074795C4F6E6544726976655C4465736BBE
S31508001CD0746F705C50726F6A656374735C4172638B
S31508001CE0686976655C53544152545F484552455C71
S31508001CF050584C332D474C494445524954455F5634
S31508001D00345C447269766572735C53544D3332465B
S31508001D103078785F48414C5F4472697665725C53E7
S31508001D2072635C73746D3332663078785F68616CA1
S31508001D305F7263632E6300001148016801220A433B
S31508001D40026041680F4A0A40426001680E4A0A402A
S31508001D50026001680D4A0A40026041680C4A0A405E
S31508001D604260C16A0F229143C162016B094A0A4067
S31508001D700263416B012291434163002181607047F0
S31508001D80001002400CB8FF08FFFFF6FEFFFFFBFF3E
S31508001D90FFFFC0FFECFEFFFF30B50168411844683D
S31508001DA062088A188368E40704D54C461B1901E0C3
S31508001DB0641C06D191420BD00C7864B2491C0D788C
S31508001DC0491C1D705B1C002CF2D4641EF7D5F1E784
S31508001DD00C3030BD80B500F017F8FFF70DFDFEF7A3
S31508001DE0E9FFFEF7EFFFFEF7F5FF01BD80B510200E
S31508001DF0FFF751FE80204001FFF74DFE01BD80B57B
S31508001E000820FFF748FE01BD02480168491C016029
S31508001E10704700BF9C00002010B507497944183167
S31508001E20064C7C44163404E0081D0A68891888475D
S31508001E300100A142F8D110BD0800000014000000FE
S31508001E4059FFFFFF960000005E000000000000201A
S31508001E5000F00DF8002801D0FFF7DEFF00BF00BF35
S31508001E60002000BF00BFFEF7ACFD00F002F801201D
S31508001E70704780B500F002F801BDFEE70746384610
S31508001E8000F002F8FBE7FEE780B500BF00BF024A94
S31508001E9011001820ABBEFBE7260002000148804768
S31508001EA001480047391D0008AD1E000800BF00BFE5
S31508001EB000BF00BFFFF7CCFFFEE7FEE7FEE7FEE741
S31508001EC0FEE7FEE7FEE7FEE7FEE7FEE7FEE7FEE7DC
S31508001ED0FEE7FEE7FEE7FEE7FEE7A0000040F800A3
S31508001EE00080FD000301000080FC000308000001DB
S31508001EF0FD000002F90001D007F6000A01020304FA
S30E08001F000607080900127AFB0025
S70508001EAD27
